:020000020000FC
:0200000027C017
:1000340038C045014E01510159015C016001630161
:1000440067013F065B4F666D7D077F6F2FEF2DBF06
:1000540028E02EBF00E01FEF1AB91FE014B911E029
:100064001093010113E0109302011093030111276F
:1000740010930401109305011093060110930701D6
:1000840078940E943A01FFCF14E01093890012EE95
:10009400109388001BE01093810012E010936F000E
:1000A40008951F932F933F931FB71F93109105013A
:1000B40020910F0025B9103031F0113039F0123091
:1000C40041F0133049F02091010108C02091020150
:1000D40005C02091030102C020910401E6E4F0E090
:1000E400E20F14911BB92FE01095212325B910912B
:1000F40005011395143009F410E0109305011091D3
:1001040006012091070123951395183C30E023073D
:1001140021F41127222733270AD0109306012093B4
:1001240007011F911FBF3F912F911F9118951F9396
:100134002F931091040113951A3011F51127209172
:10014400030123952630C9F4222710910201139547
:100154001A3081F41127209101012395233039F4B9
:100164001127222710930101109302010BC0209341
:10017400010108C01093020105C02093030100C0CF
:10018400109304012F911F9108951F931FB71F937C
:100194000E94CC00FF91EF911AE0000F100F06951A
:1001A400E10F1127F11F099401E00EC004E00CC017
:1001B40004E00AC004E008C000E006C000E004C097
:1001C40000E002C000E000C01F911FBF1F911895FE
:1001D4001F931FB71F930E94EF00FF91EF911AE046
:1001E400000F100F0695E10F1127F11F099400E08D
:1001F4000EC002E00CC003E00AC002E008C004E044
:1002040006C006E004C006E002C007E000C01F917B
:100214001FBF1F9118951F931FB71F930E941201B0
:10022400FF91EF911AE0000F100F0695E10F1127CF
:10023400F11F099400E00EC001E00CC002E00AC006
:1002440001E008C004E006C007E004C006E002C004
:1002540007E000C01F911FBF1F911895E6E4F0E06E
:1002640000910001E00F1127F11F049108B90895CE
:10027400E6E3F0E0000FE00F06951127F11F05906B
:100284001490F0010994003099F70E9446000E94EE
:100294004B010000FECFF7CF013051F7FDCF023004
:1002A40039F70E94460000C0D9DFFECFF8CF0330F3
:1002B400F9F6FDCFF89405E07894E5CE0530C1F663
:1002C400FDCFF89405E07894DECEF89405E07894B8
:1002D400DACE1F931FB71F930E947001FF91EF9115
:1002E4001AE0000F100F0695E10F1127F11F099472
:00000001FF
