:020000020000FC
:040000000C94290033
:100034000C94520024012B012E01340137013B01A1
:100044003E0142013F065B4F666D7D077F6F2FEFD8
:100054002DBF28E02EBF1FEF1AB91FE014B911E01D
:10006400109301011093020112E010930301109305
:100074000401112710930501109306011093070141
:1000840014EF1093890014E21093880010E0109389
:1000940080001CE01093810000E078940E94190114
:1000A40043954C3359F0003001F01F932F9314B152
:1000B40021E0122714B92F911F911895442700307D
:1000C40011F40E94660018951F9310910401139572
:1000D4001A3021F0109304011F91189511271093E1
:1000E4000401109103011395163021F010930301BC
:1000F4001F91189511271093030110910201139574
:10010400143031F01A30C1F0109302011F91189588
:1001140010910101123059F4112710930401109326
:10012400030110930201109301011F91189514E02B
:10013400109302011F9118951F93109101011395BB
:10014400109301011F9118951F931FB71F930E94CD
:10015400AB00FF91EF911AE0000F100F0695E10F2D
:100164001127F11F099401E00EC004E00CC004E063
:100174000AC004E008C000E006C000E004C000E0DB
:1001840002C000E000C01F911FBF1F9118951F936C
:100194001FB71F930E94CE00FF91EF911AE0000F4A
:1001A400100F0695E10F1127F11F099400E00EC00E
:1001B40002E00CC003E00AC002E008C004E006C08C
:1001C40006E004C006E002C007E000C01F911FBFA4
:1001D4001F9118951F931FB71F930E94F100FF9161
:1001E400EF911AE0000F100F0695E10F1127F11F90
:1001F400099400E00EC001E00CC002E00AC001E076
:1002040008C004E006C007E004C006E002C007E03E
:1002140000C01F911FBF1F911895E8E4F0E0009102
:100224000001E00F1127F11F049108B90895E8E3D4
:10023400F0E0000FE00F06951127F11F05901490D0
:10024400F0010994003099F70E9428010000FECFC4
:10025400F9CF013061F7FDCF023049F700C0DDDF8F
:10026400FECFFACF033019F7FDCFF89405E0789468
:10027400FCCF0530E1F6FDCFF89405E07894FCCF8F
:10028400F89405E07894FCCF1F931FB71F930E9446
:100294004B01FF91EF911AE0000F100F0695E10F4B
:0602A4001127F11F09946F
:00000001FF
