:020000020000FC
:0200000023C01B
:10002C0029C0C900CC00CF00D700DA00DE00E10007
:10003C00E5003F065B4F666D7D077F6F2FEF2DBF91
:10004C0028E02EBF00E01FEF17B914B911277894E0
:10005C000E94BE00FFCF0CE00093810004EF0093E0
:10006C00890004E20093880002E000936F003FEFE8
:10007C0035B908950F930091000103950A3008F0EB
:10008C000027009300010F9118951F931FB71F9322
:10009C000E945000FF91EF911AE0000F100F06958F
:1000AC00E10F1127F11F099401E00EC004E00CC010
:1000BC0004E00AC004E008C000E006C000E004C090
:1000CC0000E002C000E000C01F911FBF1F911895F7
:1000DC001F931FB71F930E947300FF91EF911AE0BB
:1000EC00000F100F0695E10F1127F11F099400E086
:1000FC000EC002E00CC003E00AC002E008C004E03D
:10010C0006C006E004C006E002C007E000C01F9174
:10011C001FBF1F9118951F931FB71F930E94960026
:10012C00FF91EF911AE0000F100F0695E10F1127C8
:10013C00F11F099400E00EC001E00CC002E00AC0FF
:10014C0001E008C004E006C007E004C006E002C0FD
:10015C0007E000C01F911FBF1F911895EEE3F0E060
:10016C0000910001E00F1127F11F049108B90895C7
:10017C00EEE2F0E0000FE00F06951127F11F05905D
:10018C001490F0010994003099F7FDCF013081F7FC
:10019C00FDCF023069F70E94310000C0DFDFFECFD7
:1001AC00F8CF033029F7FDCFF89405E0789452CFBF
:1001BC000530F1F6FDCFF89405E078944BCFF89428
:1001CC0005E0789447CF1F931FB71F930E94EE0052
:1001DC00FF91EF911AE0000F100F0695E10F112718
:0401EC00F11F099462
:00000001FF
