:020000020000FC
:100000009200950098009B009E00A200A500A90008
:100010002FEF2DBF28E02EBF00E004B922E020938F
:10002000890021E72093880020E0209380002CE0C5
:100030002093810078940E948700FFCF1F931FB701
:100040001F930E942300FF91EF911AE0000F100F01
:100050000695E10F1127F11F099401E00EC004E09D
:100060000CC004E00AC004E008C000E006C000E0E4
:1000700004C000E002C000E000C01F911FBF1F913C
:1000800018951F931FB71F930E944600FF91EF9191
:100090001AE0000F100F0695E10F1127F11F0994C8
:1000A00000E00EC002E00CC003E00AC002E008C09D
:1000B00004E006C006E004C006E002C007E000C09D
:1000C0001F911FBF1F9118951F931FB71F930E9469
:1000D0006900FF91EF911AE0000F100F0695E10FF4
:1000E0001127F11F099400E00EC001E00CC002E0EE
:1000F0000AC001E008C004E006C007E004C006E052
:1001000002C007E000C01F911FBF1F911895E0E0DB
:10011000F0E0000FE00F06951127F11F05901490F5
:10012000F0010994003099F7FDCF013081F7FDCF40
:10013000023069F7FDCF033051F7FDCFF89405E0A9
:1001400078947BCF053019F7FDCFF89405E07894CB
:0A01500074CFF89405E0789470CFA6
:00000001FF
